:100000001AC1000047C1000045C1000043C1000003
:1000100041C100003FC100003DC100003BC10000E4
:1000200039C1000037C1000035C1000033C10000F4
:1000300031C100002FC100002DC100002BC1000004
:1000400029C1000027C1000025C1000023C1000014
:1000500021C100001FC100001DC10000E9C5000052
:1000600019C1000058C600002DC6000013C10000D1
:1000700011C100000FC100000DC100000BC1000044
:1000800009C1000007C1000005C1000003C1000054
:1000900001C10000FFC00000FDC00000FBC0000067
:1000A000F9C00000F7C00000F5C00000F3C0000078
:1000B000F1C00000EFC00000EDC00000EBC0000088
:1000C000E9C00000E7C00000E5C00000E3C0000098
:1000D000E1C00000DFC00000DDC00000DBC00000A8
:1000E000D9C0000098019B018A018E019201D201C2
:1000F0009F01A301A901AD01B101B701BB01BF017E
:10010000D201C501C901CD010C0211021602200263
:100110002A02A30234023C0244024E025802620246
:1001200071027B02A30285028F02990200000A0B72
:1001300002090C0D0E080703040100000000000076
:1001400000000000000000000000000000000000AF
:10015000000000000000000012111000000000006C
:10016000000000000000000000000000000000008F
:10017000000000002200250028002B002E00310086
:10018000340002010000050108010B0100002100FC
:10019000240027002A002D00300033000101000058
:1001A000040107010A0105050505070508080808F7
:1001B000020202020A0A08080404040401010101FF
:1001C00001010101030303030303030304070707FA
:1001D0000C0C0C0C0C0C0C0C02020202060606069F
:1001E000060606060B0B0B0B0B0B0B0B010210206C
:1001F000200808102040102040800201020108045D
:1002000002010102040810204080804020100804F0
:100210000201800402018040201008040201080449
:10022000020101020408102040800102040810208D
:100230004080C106E50811241FBECFEFD1E2DEBF2A
:10024000CDBF00E00CBF22E0AEE1B2E001C01D92E4
:10025000AE3CB207E1F712E0A0E0B2E0E8EFF6E171
:1002600000E00BBF02C007900D92AE31B107D9F785
:1002700011E0CAE1D1E000E005C021970109802F1B
:10028000FE01E1D7C931D10780E00807B1F7AAD54F
:100290000C946B0BB5CE90E0FC01E451FE4F249121
:1002A000FC01EA55FE4F8491882399F090E0880F75
:1002B000991FFC01E457FE4FA591B491FC01EE5843
:1002C000FE4F859194918FB7F894EC91E22BEC93CB
:1002D0008FBF0895362F90E0FC01E45DFE4F4491FE
:1002E000FC01E451FE4F2491FC01EA55FE4F94912C
:1002F000992309F46BC0442309F454C050E0FA0177
:100300003197E231F10508F04DC08827EE58FF4FD4
:100310008F4F99C7809180008F7707C080918000B0
:100320008F7D03C080918000877F809380003AC0DA
:1003300084B58F7702C084B58F7D84BD33C0809132
:10034000B0008F7703C08091B0008F7D8093B000A4
:1003500029C0809190008F7707C0809190008F7D99
:1003600003C080919000877F809390001BC0809194
:10037000A0008F7707C08091A0008F7D03C080917F
:10038000A000877F8093A0000DC0809120018F770F
:1003900007C0809120018F7D03C080912001877F5D
:1003A00080932001E92FF0E0EE0FFF1FEE58FE4F83
:1003B000A591B4919FB7F894311104C08C91209508
:1003C000282302C0EC912E2B2C939FBF08951F93DE
:1003D000CF93DF93182FEB015EDF209711F460E0DD
:1003E00004C0CF3FD10531F461E0812FDF91CF917F
:1003F0001F9170CFE12FF0E0E45DFE4FE4918E2F6E
:1004000090E0FC013197E231F10508F09CC08827AB
:10041000EC57FF4F8F4F17C784B5806884BDC7BDA9
:1004200097C084B5806284BDC8BD92C080918000B1
:10043000806880938000D0938900C093880088C032
:1004400080918000806280938000D0938B00C09365
:100450008A007EC080918000886080938000D09365
:100460008D00C0938C0074C08091B0008068809330
:10047000B000C093B3006CC08091B00080628093E4
:10048000B000C093B40064C08091900080688093F5
:100490009000D0939900C09398005AC0809190002A
:1004A000806280939000D0939B00C0939A0050C0CC
:1004B00080919000886080939000D0939D00C093BD
:1004C0009C0046C08091A00080688093A00080912D
:1004D000A0008F7B8093A000D093A900C093A800B8
:1004E00037C08091A00080628093A000D093AB00C1
:1004F000C093AA002DC08091A00088608093A000C6
:10050000D093AD00C093AC0023C0809120018068DF
:1005100080932001D0932901C093280119C08091B4
:100520002001806280932001D0932B01C0932A0187
:100530000FC080912001886080932001D0932D010D
:10054000C0932C0105C0C038D1050CF04DCF47CF6A
:10055000DF91CF911F910895863308F086539091D3
:100560007B00282F2870977F922B90937B008770B9
:10057000806480937C0080917A00806480937A000C
:1005800080917A0086FDFCCF8091780020917900DF
:1005900090E0922B08953FB7F89480911F029091BC
:1005A0002002A0912102B091220226B5A89B05C08D
:1005B0002F3F19F00196A11DB11D3FBFBA2FA92FE2
:1005C000982F8827820F911DA11DB11DBC01CD015F
:1005D00042E0660F771F881F991F4A95D1F708954B
:1005E0000895CF92DF92EF92FF920F931F93CF93D4
:1005F000DF936C017A018B01C0E0D0E0CE15DF05FE
:1006000081F0D8016D918D01D601ED91FC910190A1
:10061000F081E02DC6011995892B11F02196EECFBE
:100620007E01C701DF91CF911F910F91FF90EF9055
:10063000DF90CF900895CF93DF93FC0144815581E3
:100640006081718187E292E0CCDFEC0142E050E012
:1006500068E172E087E292E0C4DF8C0F9D1FDF91BA
:10066000CF91089580E090E00895FC01538D448D72
:10067000252F30E0842F90E0821B930B541710F04D
:10068000CF96089501970895FC01918D828D98175A
:1006900061F0828DDF01A80FB11D5D968C91928D66
:1006A0009F5F9F73928F90E008958FEF9FEF089563
:1006B0002FB7F8948091230290912402A0912502F3
:1006C000B09126022FBF80932F0290933002A09307
:1006D0003102B093320287E292E0D6DF97FF26C064
:1006E0002FB7F8948091230290912402A0912502C3
:1006F000B09126022FBF40912F025091300260919D
:10070000310270913202841B950BA60BB70B4091FE
:100710002B0250912C0260912D0270912E028417B1
:100720009507A607B707B8F28FEF9FEF0895FC0172
:10073000918D828D981731F0828DE80FF11D858D96
:1007400090E008958FEF9FEF0895FC01918D228D29
:10075000892F90E0805C9F4F821B91098F739927AE
:10076000089587E292E0F1DF21E0892B09F420E08F
:10077000822F0895FC01848DDF01A80FB11DA35ABB
:10078000BF4F2C91848D90E001968F739927848FB1
:10079000A689B7892C93A089B1898C9183708064D4
:1007A0008C93938D848D981306C00288F389E02D75
:1007B00080818F7D80830895EF92FF920F931F9326
:1007C000CF93DF93EC0181E0888F9B8D8C8D981304
:1007D00005C0E889F989808185FD25C0F62E0B8D3D
:1007E00010E00F5F1F4F0F731127E02E8C8DE81262
:1007F0000BC00FB607FCFACFE889F989808185FF25
:10080000F5CFCE01B7DFF2CF8B8DFE01E80FF11DE2
:10081000E35AFF4FF0829FB7F8940B8FEA89FB8968
:10082000808180620AC09FB7F894EE89FF89608357
:10083000E889F98980818370806480839FBF81E02B
:1008400090E0DF91CF911F910F91FF90EF9008956D
:10085000CF93DF93EC01888D8823C1F0EA89FB896F
:10086000808185FD05C0A889B9898C9186FD0EC05F
:100870000FB607FCF5CF808185FFF2CFA889B98933
:100880008C9185FFEDCFCE0175DFE8CFDF91CF9161
:10089000089580E090E0892B19F063DF811125C075
:1008A00080E090E0892B41F080E090E0892B21F0FE
:1008B0000E94000081111CC080E090E0892B41F073
:1008C00080E090E0892B21F00E940000811113C08C
:1008D00080E090E0892BA1F080E090E0892B81F00E
:1008E0000E94000081110AC008950E940000D8CF24
:1008F0000E940000E1CF0E940000EACF0C940000AB
:1009000008952F923F924F925F926F927F928F92B3
:100910009F92AF92BF92CF92DF92EF92FF920F938E
:100920001F93CF93DF936090C8027090C902611447
:10093000710409F403C1FC01848095808114910441
:1009400009F4FCC08B017C01FB01C480D580C81870
:10095000D908C091C402D091C502C114D104A9F430
:10096000F70160817181CE019CD6EC01009709F4FA
:10097000E5C0F801608171814481558171D6F8012B
:1009800084819581C80FD91FEBCFD7FE43C05E018C
:10099000F70160817181C50184D63C01009729F17E
:1009A0004C018A189B08A401B501CE0159D6C80D87
:1009B000D91DF8016081718144815581CE0150D6E5
:1009C000F80184819581C80FD91FF701A480B580F3
:1009D000A60CB71C8091C8029091C9028C0D9D1D78
:1009E0009093C9028093C802D3CFB501CE01DF91A5
:1009F000CF911F910F91FF90EF90DF90CF90BF901C
:100A0000AF909F908F907F906F905F904F903F90AE
:100A10002F9040C6FC01408051805301CE01B201AD
:100A200040D6009729F0880D991DAC0CBD1CF7CF5E
:100A30006A147B0409F482C08091C6029091C702B7
:100A40008A159B0580F4B5016F5F7F4FCE0124D5D9
:100A5000009709F473C09093C5028093C402B092CA
:100A6000C702A092C602C091C802D091C9022197C4
:100A7000D7FD64C04E01F7014480558041145104F4
:100A800009F45CC0A090C802B090C902A114B104DE
:100A900009F454C0A414B50408F450C0CA15DB0509
:100AA00020F04501F1E08F1A91086090C402709027
:100AB000C502C301CFEFDFEF1301280C391C281644
:100AC000390678F0F70160817181EBD5009749F024
:100AD0009C01261937098216930608F0E901019650
:100AE000EECFD7FD2BC04C0E5D1EC301840D951DAE
:100AF000A50144195509BC018C0D9D1DBAD58091E5
:100B0000C8029091C9028C0D9D1D9093C9028093DB
:100B1000C8022091C4023091C502F901E80FF91F03
:100B200010828091C4029091C502F80160817181A8
:100B3000448155818C0F9D1F93D599CFDF91CF9123
:100B40001F910F91FF90EF90DF90CF90BF90AF90EB
:100B50009F908F907F906F905F904F903F902F90DD
:100B600008950F931F93CF93DF93EC0188819981B0
:100B7000009729F02A813B812617370780F48B01E3
:100B80006F5F7F4F89D4009761F0998388831B83BF
:100B90000A832C813D81232B11F4FC01108281E01A
:100BA00001C080E0DF91CF911F910F910895EF92E6
:100BB000FF920F931F93CF93DF93EC017B018A0188
:100BC000BA01CFDF2881398181110CC0211531058F
:100BD00011F0C901D8D3198218821D821C821B8290
:100BE0001A8205C01D830C83B701C90153D5CE01FC
:100BF000DF91CF911F910F91FF90EF900895FC012D
:100C0000118210821382128215821482611571057D
:100C100049F0FB0101900020E9F73197AF01461B35
:100C2000570BC5CF0895FC0180819181ACC314D5C9
:100C30001F920F920FB60F9211242F933F938F9311
:100C40009F93AF93BF938091230290912402A09130
:100C50002502B091260230911E0223E0230F2D378A
:100C600020F40196A11DB11D05C026E8230F0296B0
:100C7000A11DB11D20931E02809323029093240294
:100C8000A0932502B093260280911F02909120022A
:100C9000A0912102B09122020196A11DB11D809365
:100CA0001F0290932002A0932102B0932202BF91D1
:100CB000AF919F918F913F912F910F900FBE0F9009
:100CC0001F9018951F920F920FB60F9211240BB61A
:100CD0000F922F933F934F935F936F937F938F93D5
:100CE0009F93AF93BF93EF93FF9387E292E042DD30
:100CF000FF91EF91BF91AF919F918F917F916F91F4
:100D00005F914F913F912F910F900BBE0F900FBEAF
:100D10000F901F9018951F920F920FB60F921124EB
:100D20000BB60F922F938F939F93EF93FF93E091C6
:100D30003702F09138028081E0913D02F0913E024D
:100D400082FD12C09081809140028F5F8F7320914D
:100D50004102821751F0E0914002F0E0E95DFD4F61
:100D6000958F8093400201C08081FF91EF919F9108
:100D70008F912F910F900BBE0F900FBE0F901F9071
:100D80001895E7E2F2E01382128288EE93E0A0E089
:100D9000B0E084839583A683B7838AE092E0918351
:100DA000808385EC90E09587848784EC90E097873A
:100DB000868780EC90E0918B808B81EC90E0938B28
:100DC000828B82EC90E0958B848B86EC90E0978B05
:100DD000868B118E128E138E148E6AE172E084EC73
:100DE00092E00DCFCF93DF93CDB7DEB72C970FB640
:100DF000F894DEBF0FBECDBF789484B5826084BD09
:100E000084B5816084BD85B5826085BD85B581600E
:100E100085BD80916E00816080936E00109281008C
:100E20008091810082608093810080918100816047
:100E30008093810080918000816080938000809108
:100E4000B10084608093B1008091B0008160809394
:100E5000B000809191008260809391008091910018
:100E600081608093910080919000816080939000D8
:100E70008091A10082608093A1008091A100816097
:100E80008093A1008091A00081608093A000809158
:100E900021018260809321018091210181608093F2
:100EA00021018091200181608093200180917A004E
:100EB000846080937A0080917A00826080937A00C7
:100EC00080917A00816080937A0080917A008068B6
:100ED00080937A001092C1008BE0DDD98CE0DBD9E1
:100EE0008DE0D9D9E0913702F091380282E0808319
:100EF000E0913302F09134021082E0913502F091DA
:100F000036028FEC808310923F02E0913B02F09119
:100F10003C0286E08083E0913902F0913A028081C0
:100F200080618083E0913902F0913A02808188608B
:100F30008083E0913902F0913A0280818068808359
:100F4000E0913902F0913A0280818F7D808384E6BE
:100F500090E0A0E0B0E080932B0290932C02A0934D
:100F60002D02B0932E0286E3F7DA87E3F5DA88E301
:100F7000F3DA87E292E0E9DB181619060CF0EDC00F
:100F80006AE172E0CE0101963ADE92DB97FD19C06C
:100F90008F8318860D811E810F5F1F4FB801CE0110
:100FA0000196DFDD882389F329813A818D819E8135
:100FB000BE01695F7F4F820F931F6CD31E830D8329
:100FC000E4CF8091C4029091C502009739F0698105
:100FD0007A816115710509F0E6C0D5D189819A81C0
:100FE0009093C5028093C4028B819C819093C70229
:100FF0008093C6028D819E819093C9028093C8021E
:101000001A8219821C821B821E821D82CE010196C9
:101010000ADE6AE172E0CE010196F1DD69E172E07B
:10102000CE010796ECDDBE016F5F7F4FCE010796C4
:1010300068DCCE010796F7DDCE010196F4DD6AE1AA
:1010400072E0CE010196DBDD6BE172E0CE01079626
:10105000D6DDBE016F5F7F4FCE01079652DCCE0119
:101060000796E1DDCE010196DEDD4091C802509188
:10107000C9026091C4027091C50287E292E0B1DAC0
:101080006AE172E0CE010196BADD01E010E09BE07A
:10109000E92EF12C8091C8029091C9029C01215047
:1010A00031090217130708F047C00817190738F568
:1010B0008091C4029091C502009709F1FC01E00FF4
:1010C000F11F80818335E1F489819A81009711F0C5
:1010D0007FD003C060E070E0CB0167012FEFC21A40
:1010E000D20A8E2D74D9CE010196A5DA40E050E0E7
:1010F0006AE172E0CE0101965ADD76011AC080E005
:101100008F831886CD80DE808FEFC81AD80AB6018B
:10111000CE01019626DD882361F029813A818D81F7
:101120009E81BE01695F7F4F820F931FB3D2DE8223
:10113000CD820F5F1F4FAECF89819A81009711F04A
:1011400047D003C060E070E0CB018E2D40D9CE01C6
:10115000019671DACE01019666DD1DDA6B017C0124
:1011600084E6882E912CA12CB12C15DADC01CB0160
:101170008C199D09AE09BF09883E9340A105B105B0
:10118000A0F321E0821A9108A108B10888EEC80EE8
:1011900083E0D81EE11CF11C81149104A104B10468
:1011A00021F777DBE0CE4091C6025091C7022D8136
:1011B0003E814217530708F410CF6CD28D819E8177
:1011C0009093C9028093C8021FCF84EC92E02BCD8C
:1011D0001F93FC0199278827BC01E89411911032D4
:1011E000E9F3193010F01E30C8F31B3249F01D32FC
:1011F00041F4689405C012D0610F711D811D911DCD
:10120000119110531A30B8F33EF490958095709573
:1012100061957F4F8F4F9F4F1F910895592F482FF2
:10122000372F262F660F771F881F991F660F771F8E
:10123000881F991F620F731F841F951F660F771FEA
:10124000881F991F0895EE0FFF1F881F8BBF0790FF
:10125000F691E02D19940F931F93CF93DF93823073
:10126000910510F482E090E0E091CC02F091CD0283
:1012700020E030E0A0E0B0E0309719F140815181EA
:101280000281138148175907C8F08417950769F43C
:10129000109731F012960C93129713961C9327C057
:1012A0000093CC021093CD0222C02115310519F014
:1012B0004217530718F49A01BD01EF01DF01F8014D
:1012C000DBCF21153105F9F0281B390B243031050E
:1012D00080F48A819B816115710521F0FB01938364
:1012E000828304C09093CD028093CC02FE0132969B
:1012F00044C0FE01E20FF31F819391932250310904
:10130000398328833AC02091CA023091CB02232B23
:1013100041F420910202309103023093CB022093DA
:10132000CA0220910002309101022115310541F4D9
:101330002DB73EB74091040250910502241B350B96
:10134000E091CA02F091CB02E217F307A0F42E1B42
:101350003F0B2817390778F0AC014E5F5F4F241719
:10136000350748F04E0F5F1F5093CB024093CA02DF
:101370008193919302C0E0E0F0E0CF01DF91CF9143
:101380001F910F910895CF93DF93009709F481C0C7
:10139000FC01329713821282A091CC02B091CD024F
:1013A000109781F420813181820F931F2091CA020E
:1013B0003091CB022817390751F5F093CB02E09317
:1013C000CA0267C0ED0120E030E0CE17DF0740F42D
:1013D0004A815B819E0141155105F1F0EA01F5CF8B
:1013E000D383C28340815181840F951FC817D907C9
:1013F00059F488819981840F951F02969183808387
:101400008A819B81938382832115310529F4F0938E
:10141000CD02E093CC023DC0E901FB83EA83499110
:101420005991C40FD51FEC17FD0761F4808191819C
:10143000840F951F0296E9019983888382819381A5
:101440009B838A83E0E0F0E012968D919C91139744
:10145000009719F0FD01DC01F7CF8D919C91119758
:101460009D012E5F3F4F820F931F2091CA02309142
:10147000CB022817390769F4309729F41092CD026E
:101480001092CC0202C013821282B093CB02A093BE
:10149000CA02DF91CF9108956F927F928F929F92AF
:1014A000AF92BF92CF92DF92EF92FF920F931F9372
:1014B000CF93DF93009781F4CB01DF91CF911F9100
:1014C0000F91FF90EF90DF90CF90BF90AF909F90E3
:1014D0008F907F906F90BFCEFC01E60FF71F9C01AD
:1014E00022503109E217F30708F4A5C0EC01D90135
:1014F0000D911C91119706171707A8F005301105DB
:1015000008F497C0C80104978617970708F491C09C
:1015100002501109061B170B019311936D937C93D5
:10152000CF0131DF86C05B01A01AB10A4C01800EE9
:10153000911EA091CC02B091CD02612C712CE12CB6
:10154000F12C109709F446C08D919C911197A81524
:10155000B905B1F56C0142E0C40ED11CCA14DB041C
:1015600078F14C018A189B08640142E0C40ED11C3A
:101570001296BC9012971396AC91B5E0CB16D1049D
:1015800040F0B282A38391828082D9016D937C93D3
:1015900009C00E5F1F4F800F911FF9019183808357
:1015A000EB2DFA2FE114F10431F0D7011396FC93DF
:1015B000EE9312973EC0F093CD02E093CC0239C077
:1015C0006816790608F43C017D0112960D90BC91D5
:1015D000A02DB7CF8091CA029091CB0288169906B0
:1015E000E1F466167706C8F480910002909101023A
:1015F000009741F48DB79EB74091040250910502C7
:10160000841B950BE817F907B0F4F093CB02E09335
:10161000CA02F901718360830CC0CB011CDE7C011E
:10162000009749F0A801BE011BD0CE01ACDEC70176
:1016300004C0CE0102C080E090E0DF91CF911F9105
:101640000F91FF90EF90DF90CF90BF90AF909F9061
:101650008F907F906F90089581E090E0F8943BC068
:10166000FB01DC0102C001900D9241505040D8F7BF
:1016700008956817790768F4FB01DC01E40FF51F92
:10168000A40FB51F02C002900E9241505040D8F7EF
:101690000895E6CFFB01DC0101900D920020E1F7F7
:1016A0000895FB0151915523A9F0BF01DC014D9133
:1016B00045174111E1F759F4CD010190002049F09F
:1016C0004D9140154111C9F3FB014111EFCF81E06C
:1016D00090E00197089511E0CAE1D1E000E005C073
:1016E000802FFE01B0DD2196011DCB31D10780E0B6
:0816F0000807B1F7F894FFCFE1
:1016F8000000CE02800000000000DC03F102350388
:0E1708002804A503440397030D0A000D0000FA
:00000001FF
