:100000000C9428010C9459010C9459010C94590139
:100010000C9459010C9459010C9459010C945901F8
:100020000C9459010C9459010C9459010C945901E8
:100030000C9459010C9459010C9459010C945901D8
:100040000C9459010C9459010C9459010C945901C8
:100050000C9459010C9459010C9459010C94F70219
:100060000C9459010C946B030C9441030C945901AA
:100070000C9459010C9459010C9459010C94590198
:100080000C9459010C9459010C9459010C94590188
:100090000C9459010C9459010C9459010C94590178
:1000A0000C9459010C9459010C9459010C94590168
:1000B0000C9459010C9459010C9459010C94590158
:1000C0000C9459010C9459010C9459010C94590148
:1000D0000C9459010C9459010C9459010C94590138
:1000E0000C9459010C94F9010C945E050C942B05A9
:1000F0000C947E020C942E050C9454050C941F0550
:100100000C9497010C9442050C94EB010C9434056B
:100110000C9431020C9423050C943E050C944C0570
:100120000C945B010C9450050C9438050C948801D8
:100130000C9464050C9427050C9406050C94460554
:100140000C940B050C945A05000021002400270094
:100150002A002D00300033000101000004010701D6
:100160000A0100002200250028002B002E0031008B
:10017000340002010000050108010B010505050519
:10018000070508080808020202020A0A080804040F
:10019000040401010101010101010303030303033D
:1001A0000303040707070C0C0C0C0C0C0C0C0202CC
:1001B000020206060606060606060B0B0B0B0B0BC9
:1001C0000B0B010210202008081020401020408056
:1001D000020102010804020101020408102040800B
:1001E0008040201008040201800402018040201099
:1001F00008040201080402010102040810204080E2
:10020000010204081020408000000A0B02090C0DB6
:100210000E080703040100000000000000000000B9
:1002200000000000000000000000000000000000CE
:10023000000000001211100000000000000000008B
:100240000000000000000000000000000000640545
:1002500011241FBECFEFD1E2DEBFCDBF00E00CBF47
:1002600022E0AAE1B2E001C01D92A63CB207E1F78C
:1002700012E0A0E0B2E0EAEDFFE000E00BBF02C058
:1002800007900D92AA31B107D9F711E0C8E2D1E089
:1002900000E006C021970109802FFE010E94CD05D4
:1002A000C732D10780E00807A9F70E94A1030C9488
:1002B000EB070C940000AF92BF92CF92DF92EF92C7
:1002C000FF920F931F93CF93DF936C017B018B0100
:1002D000040F151FEB015E01AE18BF08C017D10750
:1002E00059F06991D601ED91FC910190F081E02DDA
:1002F000C6011995892B79F7C501DF91CF911F911F
:100300000F91FF90EF90DF90CF90BF90AF90089546
:10031000FC01538D448D252F30E0842F90E0821B0B
:10032000930B541710F0CF96089501970895FC0190
:10033000918D828D981761F0A28DAE0FBF2FB11DE8
:100340005D968C91928D9F5F9F73928F90E0089540
:100350008FEF9FEF08952FB7F8948091210290912D
:100360002202A0912302B09124022FBF80932D027C
:1003700090932E02A0932F02B093300285E292E078
:100380000E94970197FF26C02FB7F8948091210211
:1003900090912202A0912302B09124022FBF40919C
:1003A0002D0250912E0260912F0270913002841B19
:1003B000950BA60BB70B4091290250912A02609130
:1003C0002B0270912C0284179507A607B707B0F28D
:1003D0008FEF9FEF0895FC01918D828D981731F07A
:1003E000828DE80FF11D858D90E008958FEF9FEFCE
:1003F0000895FC01918D228D892F90E0805C9F4FA4
:10040000821B91098F739927089585E292E00E94DB
:10041000F90121E0892B09F420E0822F0895FC01E5
:10042000A48DA80FB92FB11DA35ABF4F2C91848D55
:1004300090E001968F739927848FA689B7892C93B2
:10044000A089B1898C91837080648C93938D848D05
:10045000981306C00288F389E02D80818F7D808308
:100460000895EF92FF920F931F93CF93DF93EC01C8
:1004700081E0888F9B8D8C8D98131AC0E889F9894B
:10048000808185FF15C09FB7F894EE89FF8960834E
:10049000E889F98980818370806480839FBF81E0CF
:1004A00090E0DF91CF911F910F91FF90EF90089511
:1004B000F62E0B8D10E00F5F1F4F0F731127E02EEC
:1004C0008C8D8E110CC00FB607FCFACFE889F98924
:1004D000808185FFF5CFCE010E940F02F1CFEB8D19
:1004E000EC0FFD2FF11DE35AFF4FF0829FB7F894F8
:1004F0000B8FEA89FB8980818062CFCFCF93DF9316
:10050000EC01888D8823B9F0AA89BB89E889F9892B
:100510008C9185FD03C0808186FD0DC00FB607FC60
:10052000F7CF8C9185FFF2CF808185FFEDCFCE0193
:100530000E940F02E9CFDF91CF91089580E090E013
:10054000892B29F00E94050281110E94000080E0A1
:1005500090E0892B49F080E090E0892B29F00E94FF
:10056000000081110E94000080E090E0892B49F09A
:1005700080E090E0892B29F00E94000081110E9408
:10058000000080E090E0892B49F080E090E0892B2A
:1005900029F00E94000081110C94000008950F932F
:1005A0001F93CF93DF93EC0188819981009759F0D5
:1005B0002A813B812617370730F081E0DF91CF9108
:1005C0001F910F9108958B016F5F7F4F0E94FA0674
:1005D000009759F0998388831B830A832C813D817E
:1005E000232B59F7FC011082E8CF80E0E7CF1F9260
:1005F0000F920FB60F9211242F933F938F939F93D7
:10060000AF93BF938091210290912202A091230287
:10061000B09124023091200223E0230F2D3758F5AA
:100620000196A11DB11D2093200280932102909379
:100630002202A0932302B093240280911C02909185
:100640001D02A0911E02B0911F020196A11DB11DB5
:1006500080931C0290931D02A0931E02B0931F0270
:10066000BF91AF919F918F913F912F910F900FBEAE
:100670000F901F90189526E8230F0296A11DB11D1B
:10068000D2CF1F920F920FB60F9211240BB60F927A
:100690002F933F934F935F936F937F938F939F938A
:1006A000AF93BF93EF93FF9385E292E00E940F0216
:1006B000FF91EF91BF91AF919F918F917F916F913A
:1006C0005F914F913F912F910F900BBE0F900FBEF6
:1006D0000F901F9018951F920F920FB60F92112432
:1006E0000BB60F922F938F939F93EF93FF93E0910D
:1006F0003502F09136028081E0913B02F0913C029C
:1007000082FD1DC0908180913E028F5F8F7320918A
:100710003F02821741F0E0913E02F0E0EB5DFD4FB9
:10072000958F80933E02FF91EF919F918F912F9132
:100730000F900BBE0F900FBE0F901F9018958081E9
:10074000F2CFCF93DF9300D000D01F921F92CDB78E
:10075000DEB7789484B5826084BD84B5816084BD41
:1007600085B5826085BD85B5816085BD80916E004F
:10077000816080936E001092810080918100826080
:1007800080938100809181008160809381008091BD
:1007900080008160809380008091B10084608093AC
:1007A000B1008091B00081608093B0008091910091
:1007B000826080939100809191008160809391008C
:1007C000809190008160809390008091A100826070
:1007D0008093A1008091A10081608093A10080910D
:1007E000A00081608093A0008091210182608093AD
:1007F000210180912101816080932101809120015C
:1008000081608093200180917A00846080937A00D7
:1008100080917A00826080937A0080917A00816072
:1008200080937A0080917A00806880937A00109299
:10083000C1000EEC11E0F801249148E8E42E41E0FB
:10084000F42EF7018491882399F090E0880F991F86
:10085000FC01E85BFE4FA591B491FC01EE59FE4FFF
:10086000859194918FB7F8949C91292B2C938FBFED
:10087000E0913502F091360282E08083E09131020E
:10088000F09132021082E0913302F09134028FEC49
:10089000808310923D02E0913902F0913A0286E0A5
:1008A0008083E0913702F0913802808180618083FB
:1008B000E0913702F0913802808188608083E09176
:1008C0003702F0913802808180688083E09137029E
:1008D000F091380280818F7D808384E690E0A0E0F3
:1008E000B0E08093290290932A02A0932B02B09348
:1008F0002C0294E1C92E92E0D92E85E292E00E946A
:10090000F901181619060CF097C01A8219821C8278
:100910001B821E821D8270E060E0CE0101960E9463
:10092000CF0229813A8181112CC02115310519F09E
:10093000C9010E9471061A8219821E821D821C82C0
:100940001B820E94AB0197FD24C08F8318868D8087
:100950009E80FFEF8F1A9F0AB401CE0101960E947C
:10096000CF02882371F329813A818D819E81BE0156
:10097000695F7F4F820F931F0E94E4079E828D82E2
:10098000E0CF1E821D8268E172E0C9010E94E40787
:10099000D8CF89809A80B12C70E08114910421F025
:1009A000C4010E949105B62EB0921A0270931B02E8
:1009B0008114910419F0C4010E947106F60184911A
:1009C000F8012491F7019491992309F435C0882303
:1009D00011F181508231F8F4E82FF0E08827EC50D3
:1009E000FB4F8F4F0C94CD0527052B0506051F05E2
:1009F00023050B052E05340538053E054205460541
:100A00004C0550050B0554055A055E058091800084
:100A10008F7780938000E92FF0E0EE0FFF1FEE59F3
:100A2000FE4FA591B4918FB7F8949C91B1104AC034
:100A3000209529232C938FBF0E949E025ECF809128
:100A400080008F7DE6CF80918000877FE2CF84B5E4
:100A50008F7784BDE0CF84B58F7DFBCF8091B000D0
:100A60008F778093B000D7CF8091B0008F7DF9CF82
:100A7000809190008F7780939000CDCF80919000EF
:100A80008F7DF9CF80919000877FF5CF8091A00076
:100A90008F778093A000BFCF8091A0008F7DF9CF8A
:100AA0008091A000877FF5CF809120018F77809380
:100AB0002001B1CF809120018F7DF9CF809120015D
:100AC000877FF5CF292BB6CFE5E2F2E013821282C1
:100AD00088EE93E0A0E0B0E084839583A683B7839B
:100AE0008AE092E09183808385EC90E0958784870B
:100AF00084EC90E09787868780EC90E0918B808BE8
:100B000081EC90E0938B828B82EC90E0958B848BD0
:100B100086EC90E0978B868B118E128E138E148E3E
:100B200008951F93FC0199278827BC01E89411912F
:100B30001032E9F3193010F01E30C8F31B3251F0B7
:100B40001D3249F4689406C00E94B805610F711DFA
:100B5000811D911D119110531A30B0F33EF4909500
:100B60008095709561957F4F8F4F9F4F1F9108958E
:100B7000592F482F372F262F660F771F881F991F51
:100B8000660F771F881F991F620F731F841F951FA1
:100B9000660F771F881F991F0895EE0FFF1F881F8C
:100BA0008BBF0790F691E02D19940F931F93CF936D
:100BB000DF938230910510F482E090E0E091C4026E
:100BC000F091C50230E020E0B0E0A0E0309799F469
:100BD0002115310509F44AC0281B390B2430310591
:100BE000D8F58A819B816115710589F1FB01938399
:100BF0008283FE0111C04081518102811381481717
:100C00005907E0F04817590799F4109761F01296C8
:100C10000C93129713961C933296CF01DF91CF91CC
:100C20001F910F9108950093C4021093C502F4CF51
:100C30002115310551F04217530738F0A901DB01A6
:100C40009A01BD01DF01F801C1CFEF01F9CF909307
:100C5000C5028093C402CDCFFE01E20FF31F819342
:100C600091932250310939832883D7CF2091C20232
:100C70003091C302232B41F42091020230910302F0
:100C80003093C3022093C2022091000230910102EE
:100C90002115310541F42DB73EB740910402509122
:100CA0000502241B350BE091C202F091C302E2174A
:100CB000F307A0F42E1B3F0B2817390778F0AC017F
:100CC0004E5F5F4F2417350748F04E0F5F1F50935C
:100CD000C3024093C202819391939FCFF0E0E0E082
:100CE0009CCFCF93DF930097E9F0FC0132971382FA
:100CF0001282A091C402B091C502ED0130E020E063
:100D00001097A1F420813181820F931F2091C2029C
:100D10003091C3022817390709F061C0F093C3026C
:100D2000E093C202DF91CF910895EA01CE17DF0769
:100D3000E8F54A815B819E0141155105B1F7E90152
:100D4000FB83EA8349915991C40FD51FEC17FD0726
:100D500061F4808191810296840F951FE901998346
:100D60008883828193819B838A83F0E0E0E01296FE
:100D70008D919C9113970097B9F52D913C91119706
:100D8000CD010296820F931F2091C2023091C302BF
:100D90002817390739F6309751F51092C50210928D
:100DA000C402B093C302A093C202BCCFD383C28358
:100DB00040815181840F951FC817D90761F44E5F98
:100DC0005F4F88819981480F591F518340838A81E1
:100DD0009B81938382832115310509F0B0CFF09375
:100DE000C502E093C4029ECFFD01DC01C0CF138297
:100DF0001282D7CF4F925F926F927F928F929F9283
:100E0000AF92BF92CF92DF92EF92FF920F931F9318
:100E1000CF93DF938C01009799F4CB01DF91CF91B1
:100E20001F910F91FF90EF90DF90CF90BF90AF9008
:100E30009F908F907F906F905F904F900C94D5050E
:100E4000FC01E60FF71F9C0122503109E217F3075E
:100E500008F4AEC0D901CD91DC911197C617D70720
:100E600020F1C530D10578F0CE0104978617970799
:100E700050F0C61BD70B2297C193D1936D937C93EF
:100E8000CF010E947106C801DF91CF911F910F9190
:100E9000FF90EF90DF90CF90BF90AF909F908F909A
:100EA0007F906F905F904F9008955B01AC1ABD0AE0
:100EB0004C018C0E9D1EA091C402B091C502512C14
:100EC000412CF12CE12C109731F58091C2029091C8
:100ED000C3028815990509F05CC04616570608F04C
:100EE00058C08091000290910102009741F48DB7A3
:100EF0009EB74091040250910502841B950BE817A0
:100F0000F90708F055C0F093C302E093C202F9015B
:100F100071836083B8CF8D919C91119712966C90DC
:100F2000129713967C901397A815B90559F56C0183
:100F300042E0C40ED11CCA14DB0420F1AC014A19F2
:100F40005B09DA011296159780F0628273825183F1
:100F50004083D9016D937C93E114F10471F0D701C2
:100F60001396FC93EE9312978ECF22968C0F9D1FB3
:100F7000F90191838083F301EFCFF093C502E093F1
:100F8000C40281CF4816590608F42C017D01D30113
:100F90009ACFCB010E94D5057C01009749F0AE01A4
:100FA000B8010E94DB07C8010E94710687016BCF60
:100FB00010E000E068CFFB01DC0102C001900D925F
:100FC00041505040D8F70895FB01DC0101900D928B
:0A0FD0000020E1F70895F894FFCF28
:100FDA000000C60280000000000031025B018801A7
:0A0FEA007E02F9019701EB010000FF
:00000001FF
