:1000000007C1000033C1000031C100002FC1000052
:100010002DC100002BC1000029C1000027C1000034
:1000200025C1000023C1000021C100001FC1000044
:100030001DC100001BC1000019C1000017C1000054
:1000400015C1000013C1000011C100000FC1000064
:100050000DC100000BC1000009C10000CEC20000AC
:1000600005C100003DC3000012C30000FFC0000036
:10007000FDC00000FBC00000F9C00000F7C0000098
:10008000F5C00000F3C00000F1C00000EFC00000A8
:10009000EDC00000EBC00000E9C00000E7C00000B8
:1000A000E5C00000E3C00000E1C00000DFC00000C8
:1000B000DDC00000DBC00000D9C00000D7C00000D8
:1000C000D5C00000D3C00000D1C00000CFC00000E8
:1000D000CDC00000CBC00000C9C00000C7C00000F8
:1000E000C5C0000000050305F204F604FA043A0551
:1000F00007050B051105150519051F05230527051E
:100100003A052D05310535050000210024002700A2
:100110002A002D0030003300010100000401070116
:100120000A0100002200250028002B002E003100CB
:10013000340002010000050108010B010505050559
:10014000070508080808020202020A0A080804044F
:10015000040401010101010101010303030303037D
:100160000303040707070C0C0C0C0C0C0C0C02020C
:10017000020206060606060606060B0B0B0B0B0B09
:100180000B0B010210202008081020401020408096
:10019000020102010804020101020408102040804B
:1001A00080402010080402018004020180402010D9
:1001B0000804020108040201010204081020408022
:1001C000010204081020408000000A0B02090C0DF7
:1001D0000E080703040100000000000000000000FA
:1001E000000000000000000000000000000000000F
:1001F00000000000121110000000000000000000CC
:100200000000000000000000000000000000810568
:1002100011241FBECFEFD1E2DEBFCDBF00E00CBF87
:1002200022E0AEE2B2E001C01D92AA3DB207E1F7C2
:1002300012E0A0E0B2E0E0E1F0E100E00BBF02C0BC
:1002400007900D92AE32B107D9F711E0C8E0D1E0C6
:1002500000E005C021970109802FFE01BAD4C73004
:10026000D10780E00807B1F771D2D0C6C9CE3FB739
:10027000F8948091310290913202A0913302B091B2
:10028000340226B5A89B05C02F3F19F00196A11D89
:10029000B11D3FBFBA2FA92F982F8827820F911D1C
:1002A000A11DB11DBC01CD0142E0660F771F881F63
:1002B000991F4A95D1F70895CF92DF92EF92FF925E
:1002C0000F931F93CF93DF936C017A018B01C0E0F2
:1002D000D0E0CE15DF0581F0D8016D918D01D601FA
:1002E000ED91FC910190F081E02DC6011995892BCB
:1002F00011F02196EECF7E01C701DF91CF911F91C2
:100300000F91FF90EF90DF90CF900895089580E0D7
:1003100090E00895FC01538D448D252F30E0842F0B
:1003200090E0821B930B541710F0CF96089501971D
:100330000895FC01918D828D981761F0828DDF0107
:10034000A80FB11D5D968C91928D9F5F9F73928FC8
:1003500090E008958FEF9FEF08952FB7F894809164
:10036000350290913602A0913702B09138022FBF2A
:100370008093410290934202A0934302B0934402BF
:1003800089E392E0D6DF97FF26C02FB7F8948091DB
:10039000350290913602A0913702B09138022FBFFA
:1003A0004091410250914202609143027091440297
:1003B000841B950BA60BB70B40913D0250913E025A
:1003C00060913F027091400284179507A607B70716
:1003D000B8F28FEF9FEF0895FC01918D828D9817F1
:1003E00031F0828DE80FF11D858D90E008958FEF3B
:1003F0009FEF0895FC01918D228D892F90E0805C04
:100400009F4F821B91098F739927089589E392E08A
:10041000F1DF21E0892B09F420E0822F0895FC010F
:10042000848DDF01A80FB11DA35ABF4F2C91848D7D
:1004300090E001968F739927848FA689B7892C93B2
:10044000A089B1898C91837080648C93938D848D05
:10045000981306C00288F389E02D80818F7D808308
:100460000895EF92FF920F931F93CF93DF93EC01C8
:1004700081E0888F9B8D8C8D981305C0E889F98960
:10048000808185FD25C0F62E0B8D10E00F5F1F4F7C
:100490000F731127E02E8C8DE8120BC00FB607FCEE
:1004A000FACFE889F989808185FFF5CFCE01B7DFE2
:1004B000F2CF8B8DFE01E80FF11DE35AFF4FF08262
:1004C0009FB7F8940B8FEA89FB89808180620AC00C
:1004D0009FB7F894EE89FF896083E889F989808164
:1004E0008370806480839FBF81E090E0DF91CF9133
:1004F0001F910F91FF90EF900895CF93DF93EC0140
:10050000888D8823C1F0EA89FB89808185FD05C03B
:10051000A889B9898C9186FD0EC00FB607FCF5CF6E
:10052000808185FFF2CFA889B9898C9185FFEDCFB5
:10053000CE0175DFE8CFDF91CF91089580E090E0A4
:10054000892B19F063DF811125C080E090E0892BB1
:1005500041F080E090E0892B21F00E9400008111A1
:100560001CC080E090E0892B41F080E090E0892B76
:1005700021F00E940000811113C080E090E0892BDF
:10058000A1F080E090E0892B81F00E9400008111B1
:100590000AC008950E940000D8CF0E940000E1CF59
:1005A0000E940000EACF0C94000008951BD50F9321
:1005B0001F93CF93DF93EC0188819981009729F0F5
:1005C0002A813B812617370780F48B016F5F7F4FAD
:1005D00029D4009761F0998388831B830A832C8137
:1005E0003D81232B11F4FC01108281E001C080E0E9
:1005F000DF91CF911F910F9108951F920F920FB627
:100600000F9211242F933F938F939F93AF93BF9398
:100610008091350290913602A0913702B091380254
:100620003091300223E0230F2D3720F40196A11DD5
:10063000B11D05C026E8230F0296A11DB11D209310
:1006400030028093350290933602A0933702B09324
:1006500038028091310290913202A0913302B09120
:1006600034020196A11DB11D809331029093320294
:10067000A0933302B0933402BF91AF919F918F91B9
:100680003F912F910F900FBE0F901F9018951F92C2
:100690000F920FB60F9211240BB60F922F933F9328
:1006A0004F935F936F937F938F939F93AF93BF937A
:1006B000EF93FF9389E392E0B2DEFF91EF91BF9158
:1006C000AF919F918F917F916F915F914F913F91EA
:1006D0002F910F900BBE0F900FBE0F901F9018958B
:1006E0001F920F920FB60F9211240BB60F922F93F9
:1006F0008F939F93EF93FF93E0914902F0914A0209
:100700008081E0914F02F091500282FD12C09081F1
:10071000809152028F5F8F7320915302821751F0A4
:10072000E0915202F0E0E75CFD4F958F809352021A
:1007300001C08081FF91EF919F918F912F910F9038
:100740000BBE0F900FBE0F901F901895CF93DF93A5
:10075000CDB7DEB728970FB6F894DEBF0FBECDBF7A
:10076000789484B5826084BD84B5816084BD85B58C
:10077000826085BD85B5816085BD80916E00816098
:1007800080936E001092810080918100826080933E
:100790008100809181008160809381008091800040
:1007A0008160809380008091B10084608093B1006B
:1007B0008091B00081608093B00080919100826050
:1007C000809391008091910081608093910080914D
:1007D00090008160809390008091A100826080935E
:1007E000A1008091A10081608093A1008091A00070
:1007F00081608093A000809121018260809321011B
:10080000809121018160809321018091200181608C
:100810008093200180917A00846080937A00809197
:100820007A00826080937A0080917A008160809360
:100830007A0080917A00806880937A001092C100DB
:100840000EE811E0F801249148E4E42E41E0F42E92
:10085000F7018491882399F090E0880F991FFC019B
:10086000E85FFE4FA591B491FC01EE5DFE4F8591CE
:1008700094919FB7F8948C91822B8C939FBFE091B9
:100880004902F0914A0282E08083E0914502F091B2
:1008900046021082E0914702F09148028FEC80837B
:1008A00010925102E0914D02F0914E0286E0808359
:1008B000E0914B02F0914C02808180618083E09155
:1008C0004B02F0914C02808188608083E0914B0262
:1008D000F0914C02808180688083E0914B02F0911E
:1008E0004C0280818F7D808384E690E0A0E0B0E0C0
:1008F00080933D0290933E02A0933F02B09340024A
:1009000024EDC22E21E0D22E89E392E073DD181689
:1009100019060CF0D0C01A8219821C821B821E821A
:100920001D8260E070E0CE01019641DE29813A81AE
:1009300081110CC02115310511F0C901EAD11A82CB
:1009400019821E821D821C821B8206C01E821D828D
:100950006CE272E0C90153D300DD97FD1AC08F83AA
:100960001886AD80BE80FFEFAF1ABF0AB501CE0179
:1009700001961DDE882381F329813A818D819E8134
:10098000BE01695F7F4F820F931F39D3BE82AD8254
:10099000E3CF89809A808114910421F0C401DED0D4
:1009A000B62E02C0B12C70E0B0922E0270932F02CE
:1009B000C401AFD1F6014491F8012491F70194915B
:1009C000992309F46AC0442309F454C050E0FA01A1
:1009D0003197E231F10508F04DC08827EE58FF4FFE
:1009E0008F4FF7C0809180008F7707C08091800083
:1009F0008F7D03C080918000877F809380003AC004
:100A000084B58F7702C084B58F7D84BD33C080915B
:100A1000B0008F7703C08091B0008F7D8093B000CD
:100A200029C0809190008F7707C0809190008F7DC2
:100A300003C080919000877F809390001BC08091BD
:100A4000A0008F7707C08091A0008F7D03C08091A8
:100A5000A000877F8093A0000DC0809120018F7738
:100A600007C0809120018F7D03C080912001877F86
:100A700080932001E92FF0E0EE0FFF1FEE5DFE4FA7
:100A8000A591B4919FB7F8948C91B11003C02095B3
:100A9000282301C0282B2C939FBF41E150E068E13F
:100AA00072E089E392E008DC42E050E06AE272E042
:100AB00089E392E001DCDBDB2B013C0184E6882E3C
:100AC000912CA12CB12CD3DBDC01CB01841995092D
:100AD000A609B709883E9340A105B105A0F3F1E04E
:100AE0008F1A9108A108B10828EE420E23E0521E89
:100AF000611C711C81149104A104B10421F71EDD55
:100B000003CFE9E3F2E01382128288EE93E0A0E0E3
:100B1000B0E084839583A683B7838AE092E09183D3
:100B2000808385EC90E09587848784EC90E09787BC
:100B3000868780EC90E0918B808B81EC90E0938BAA
:100B4000828B82EC90E0958B848B86EC90E0978B87
:100B5000868B118E128E138E148E08951F93FC01B6
:100B600099278827BC01E89411911032E9F31930D4
:100B700010F01E30C8F31B3249F01D3241F4689466
:100B800005C012D0610F711D811D911D119110536F
:100B90001A30B8F33EF490958095709561957F4F2B
:100BA0008F4F9F4F1F910895592F482F372F262F72
:100BB000660F771F881F991F660F771F881F991F61
:100BC000620F731F841F951F660F771F881F991F61
:100BD0000895EE0FFF1F881F8BBF0790F691E02D41
:100BE00019940F931F93CF93DF938230910510F4E4
:100BF00082E090E0E091D802F091D90220E030E06C
:100C0000A0E0B0E0309719F1408151810281138159
:100C100048175907C8F08417950769F4109731F001
:100C200012960C93129713961C9327C00093D80228
:100C30001093D90222C02115310519F0421753072C
:100C400018F49A01BD01EF01DF01F801DBCF211596
:100C50003105F9F0281B390B2430310580F48A81E5
:100C60009B816115710521F0FB019383828304C090
:100C70009093D9028093D802FE01329644C0FE01BF
:100C8000E20FF31F81939193225031093983288316
:100C90003AC02091D6023091D702232B41F4209103
:100CA0000202309103023093D7022093D6022091A2
:100CB0000002309101022115310541F42DB73EB7F4
:100CC0004091040250910502241B350BE091D6029D
:100CD000F091D702E217F307A0F42E1B3F0B281761
:100CE000390778F0AC014E5F5F4F2417350748F0A5
:100CF0004E0F5F1F5093D7024093D602819391937A
:100D000002C0E0E0F0E0CF01DF91CF911F910F91A1
:100D10000895CF93DF93009709F481C0FC013297C7
:100D200013821282A091D802B091D902109781F457
:100D300020813181820F931F2091D6023091D702FA
:100D40002817390751F5F093D702E093D60267C010
:100D5000ED0120E030E0CE17DF0740F44A815B81EF
:100D60009E0141155105F1F0EA01F5CFD383C2830D
:100D700040815181840F951FC817D90759F4888184
:100D80009981840F951F0296918380838A819B812C
:100D9000938382832115310529F4F093D902E093DE
:100DA000D8023DC0E901FB83EA8349915991C40F00
:100DB000D51FEC17FD0761F480819181840F951F89
:100DC0000296E90199838883828193819B838A8338
:100DD000E0E0F0E012968D919C911397009719F046
:100DE000FD01DC01F7CF8D919C9111979D012E5F44
:100DF0003F4F820F931F2091D6023091D7022817C0
:100E0000390769F4309729F41092D9021092D80268
:100E100002C013821282B093D702A093D602DF9150
:100E2000CF9108956F927F928F929F92AF92BF92CF
:100E3000CF92DF92EF92FF920F931F93CF93DF93A6
:100E4000009781F4CB01DF91CF911F910F91FF901B
:100E5000EF90DF90CF90BF90AF909F908F907F905A
:100E60006F90BFCEFC01E60FF71F9C0122503109A5
:100E7000E217F30708F4A5C0EC01D9010D911C910C
:100E8000119706171707A8F00530110508F497C049
:100E9000C80104978617970708F491C002501109FA
:100EA000061B170B019311936D937C93CF0131DFD8
:100EB00086C05B01A01AB10A4C01800E911EA09160
:100EC000D802B091D902612C712CE12CF12C109731
:100ED00009F446C08D919C911197A815B905B1F5FB
:100EE0006C0142E0C40ED11CCA14DB0478F14C0141
:100EF0008A189B08640142E0C40ED11C1296BC9073
:100F000012971396AC91B5E0CB16D10440F0B282A3
:100F1000A38391828082D9016D937C9309C00E5F77
:100F20001F4F800F911FF90191838083EB2DFA2FC2
:100F3000E114F10431F0D7011396FC93EE9312976C
:100F40003EC0F093D902E093D80239C06816790602
:100F500008F43C017D0112960D90BC91A02DB7CFF5
:100F60008091D6029091D70288169906E1F4661610
:100F70007706C8F48091000290910102009741F435
:100F80008DB79EB74091040250910502841B950BCA
:100F9000E817F907B0F4F093D702E093D602F9010D
:100FA000718360830CC0CB011CDE7C01009749F08B
:100FB000A801BE011BD0CE01ACDEC70104C0CE012A
:100FC00002C080E090E0DF91CF911F910F91FF90E0
:100FD000EF90DF90CF90BF90AF909F908F907F90D9
:100FE0006F90089581E090E0F89410C0FB01DC015F
:100FF00002C001900D9241505040D8F70895FB0176
:10100000DC0101900D920020E1F70895F894FFCFE4
:101010000000DA0280000000000031025C018A0159
:101020007D02FA019901EC0141636369C3B36E204B
:0E1030005265616C697A616461000D0A00000E
:00000001FF
